{
  "_format": "hh-sol-artifact-1",
  "contractName": "DopexBuyStrike",
  "sourceName": "contracts/DopexBuyStrike.sol",
  "abi": [
    {
      "inputs": [
        {
          "internalType": "uint256",
          "name": "strikeIndex",
          "type": "uint256"
        },
        {
          "internalType": "uint256",
          "name": "amount",
          "type": "uint256"
        },
        {
          "internalType": "address",
          "name": "user",
          "type": "address"
        },
        {
          "internalType": "address",
          "name": "baseTokenAddr",
          "type": "address"
        }
      ],
      "name": "estimateCost",
      "outputs": [
        {
          "internalType": "uint256",
          "name": "",
          "type": "uint256"
        }
      ],
      "stateMutability": "view",
      "type": "function"
    },
    {
      "inputs": [
        {
          "internalType": "address",
          "name": "baseTokenAddr",
          "type": "address"
        },
        {
          "internalType": "uint256",
          "name": "usdCost",
          "type": "uint256"
        }
      ],
      "name": "getCostInBaseToken",
      "outputs": [
        {
          "internalType": "uint256",
          "name": "",
          "type": "uint256"
        }
      ],
      "stateMutability": "view",
      "type": "function"
    },
    {
      "inputs": [
        {
          "internalType": "uint256",
          "name": "strikeIndex",
          "type": "uint256"
        },
        {
          "internalType": "uint256",
          "name": "amount",
          "type": "uint256"
        },
        {
          "internalType": "address",
          "name": "user",
          "type": "address"
        },
        {
          "internalType": "address",
          "name": "baseTokenAddr",
          "type": "address"
        }
      ],
      "name": "purchase",
      "outputs": [
        {
          "internalType": "uint256",
          "name": "",
          "type": "uint256"
        },
        {
          "internalType": "uint256",
          "name": "",
          "type": "uint256"
        }
      ],
      "stateMutability": "nonpayable",
      "type": "function"
    }
  ],
  "bytecode": "0x60806040527382af49447d8a07e3bd95bd0d56f35241523fbab16000806101000a81548173ffffffffffffffffffffffffffffffffffffffff021916908373ffffffffffffffffffffffffffffffffffffffff160217905550731b02da8cb0d097eb8d57a175b88c7d8b47997506600160006101000a81548173ffffffffffffffffffffffffffffffffffffffff021916908373ffffffffffffffffffffffffffffffffffffffff160217905550600160009054906101000a900473ffffffffffffffffffffffffffffffffffffffff16600260006101000a81548173ffffffffffffffffffffffffffffffffffffffff021916908373ffffffffffffffffffffffffffffffffffffffff16021790555034801561011c57600080fd5b506110da8061012c6000396000f3fe608060405234801561001057600080fd5b50600436106100415760003560e01c806347bf60c914610046578063a7bf1b6c14610076578063c78c091f146100a7575b600080fd5b610060600480360381019061005b9190610b7a565b6100d7565b60405161006d9190610bf0565b60405180910390f35b610090600480360381019061008b9190610b7a565b610482565b60405161009e929190610c0b565b60405180910390f35b6100c160048036038101906100bc9190610c34565b61092e565b6040516100ce9190610bf0565b60405180910390f35b60008073711da677a0d61ee855dad4241b552a706f529c70905060008173ffffffffffffffffffffffffffffffffffffffff16631acf55826040518163ffffffff1660e01b815260040160206040518083038186803b15801561013957600080fd5b505afa15801561014d573d6000803e3d6000fd5b505050506040513d601f19601f820116820180604052508101906101719190610c89565b90506101b26040518060400160405280600a81526020017f63757270726963653a200000000000000000000000000000000000000000000081525082610a06565b60008273ffffffffffffffffffffffffffffffffffffffff1663766718086040518163ffffffff1660e01b815260040160206040518083038186803b1580156101fa57600080fd5b505afa15801561020e573d6000803e3d6000fd5b505050506040513d601f19601f820116820180604052508101906102329190610c89565b90506102736040518060400160405280600e81526020017f63757272656e7445706f63683a2000000000000000000000000000000000000081525082610a06565b60008373ffffffffffffffffffffffffffffffffffffffff16637e36701f838b6040518363ffffffff1660e01b81526004016102b0929190610c0b565b60206040518083038186803b1580156102c857600080fd5b505afa1580156102dc573d6000803e3d6000fd5b505050506040513d601f19601f820116820180604052508101906103009190610c89565b90506103416040518060400160405280600881526020017f737472696b653a2000000000000000000000000000000000000000000000000081525082610a06565b60008473ffffffffffffffffffffffffffffffffffffffff1663e8468ee485848c6040518463ffffffff1660e01b815260040161038093929190610cb6565b60206040518083038186803b15801561039857600080fd5b505afa1580156103ac573d6000803e3d6000fd5b505050506040513d601f19601f820116820180604052508101906103d09190610c89565b905060008573ffffffffffffffffffffffffffffffffffffffff166212100c848c6040518363ffffffff1660e01b815260040161040e929190610c0b565b60206040518083038186803b15801561042657600080fd5b505afa15801561043a573d6000803e3d6000fd5b505050506040513d601f19601f8201168201806040525081019061045e9190610c89565b90506000828261046e9190610d1c565b905080975050505050505050949350505050565b600080600073711da677a0d61ee855dad4241b552a706f529c70905060008173ffffffffffffffffffffffffffffffffffffffff16631acf55826040518163ffffffff1660e01b815260040160206040518083038186803b1580156104e657600080fd5b505afa1580156104fa573d6000803e3d6000fd5b505050506040513d601f19601f8201168201806040525081019061051e9190610c89565b905061055f6040518060400160405280600a81526020017f63757270726963653a200000000000000000000000000000000000000000000081525082610a06565b60008273ffffffffffffffffffffffffffffffffffffffff1663766718086040518163ffffffff1660e01b815260040160206040518083038186803b1580156105a757600080fd5b505afa1580156105bb573d6000803e3d6000fd5b505050506040513d601f19601f820116820180604052508101906105df9190610c89565b90506106206040518060400160405280600e81526020017f63757272656e7445706f63683a2000000000000000000000000000000000000081525082610a06565b60008373ffffffffffffffffffffffffffffffffffffffff16637e36701f838c6040518363ffffffff1660e01b815260040161065d929190610c0b565b60206040518083038186803b15801561067557600080fd5b505afa158015610689573d6000803e3d6000fd5b505050506040513d601f19601f820116820180604052508101906106ad9190610c89565b90506106ee6040518060400160405280600881526020017f737472696b653a2000000000000000000000000000000000000000000000000081525082610a06565b60008473ffffffffffffffffffffffffffffffffffffffff1663e8468ee485848d6040518463ffffffff1660e01b815260040161072d93929190610cb6565b60206040518083038186803b15801561074557600080fd5b505afa158015610759573d6000803e3d6000fd5b505050506040513d601f19601f8201168201806040525081019061077d9190610c89565b905060008573ffffffffffffffffffffffffffffffffffffffff166212100c848d6040518363ffffffff1660e01b81526004016107bb929190610c0b565b60206040518083038186803b1580156107d357600080fd5b505afa1580156107e7573d6000803e3d6000fd5b505050506040513d601f19601f8201168201806040525081019061080b9190610c89565b90506000828261081b9190610d1c565b90506000732f2a2543b76a4166549f7aab2e75bef0aefc5b0f90506000610842828461092e565b905060008273ffffffffffffffffffffffffffffffffffffffff166370a08231336040518263ffffffff1660e01b815260040161087f9190610d81565b60206040518083038186803b15801561089757600080fd5b505afa1580156108ab573d6000803e3d6000fd5b505050506040513d601f19601f820116820180604052508101906108cf9190610c89565b905081811015610914576040517f08c379a000000000000000000000000000000000000000000000000000000000815260040161090b90610e1f565b60405180910390fd5b6045809b509b505050505050505050505094509492505050565b600080736ce185860a4963106506c203335a2910413708e9905060008060008060008573ffffffffffffffffffffffffffffffffffffffff1663feaf968c6040518163ffffffff1660e01b815260040160a06040518083038186803b15801561099657600080fd5b505afa1580156109aa573d6000803e3d6000fd5b505050506040513d601f19601f820116820180604052508101906109ce9190610eb7565b9450945094509450945060006402540be400856109eb9190610f32565b90506109f7818a610aa2565b97505050505050505092915050565b610a9e8282604051602401610a1c929190611014565b6040516020818303038152906040527f9710a9d0000000000000000000000000000000000000000000000000000000007bffffffffffffffffffffffffffffffffffffffffffffffffffffffff19166020820180517bffffffffffffffffffffffffffffffffffffffffffffffffffffffff8381831617835250505050610ab8565b5050565b60008183610ab09190611073565b905092915050565b60008151905060006a636f6e736f6c652e6c6f679050602083016000808483855afa5050505050565b600080fd5b6000819050919050565b610af981610ae6565b8114610b0457600080fd5b50565b600081359050610b1681610af0565b92915050565b600073ffffffffffffffffffffffffffffffffffffffff82169050919050565b6000610b4782610b1c565b9050919050565b610b5781610b3c565b8114610b6257600080fd5b50565b600081359050610b7481610b4e565b92915050565b60008060008060808587031215610b9457610b93610ae1565b5b6000610ba287828801610b07565b9450506020610bb387828801610b07565b9350506040610bc487828801610b65565b9250506060610bd587828801610b65565b91505092959194509250565b610bea81610ae6565b82525050565b6000602082019050610c056000830184610be1565b92915050565b6000604082019050610c206000830185610be1565b610c2d6020830184610be1565b9392505050565b60008060408385031215610c4b57610c4a610ae1565b5b6000610c5985828601610b65565b9250506020610c6a85828601610b07565b9150509250929050565b600081519050610c8381610af0565b92915050565b600060208284031215610c9f57610c9e610ae1565b5b6000610cad84828501610c74565b91505092915050565b6000606082019050610ccb6000830186610be1565b610cd86020830185610be1565b610ce56040830184610be1565b949350505050565b7f4e487b7100000000000000000000000000000000000000000000000000000000600052601160045260246000fd5b6000610d2782610ae6565b9150610d3283610ae6565b9250827fffffffffffffffffffffffffffffffffffffffffffffffffffffffffffffffff03821115610d6757610d66610ced565b5b828201905092915050565b610d7b81610b3c565b82525050565b6000602082019050610d966000830184610d72565b92915050565b600082825260208201905092915050565b7f3c746169206c6f70657a20766f6963653e20594f55204d55535420484156452060008201527f454e4f554748204655454c20554e495453000000000000000000000000000000602082015250565b6000610e09603183610d9c565b9150610e1482610dad565b604082019050919050565b60006020820190508181036000830152610e3881610dfc565b9050919050565b600069ffffffffffffffffffff82169050919050565b610e5e81610e3f565b8114610e6957600080fd5b50565b600081519050610e7b81610e55565b92915050565b6000819050919050565b610e9481610e81565b8114610e9f57600080fd5b50565b600081519050610eb181610e8b565b92915050565b600080600080600060a08688031215610ed357610ed2610ae1565b5b6000610ee188828901610e6c565b9550506020610ef288828901610ea2565b9450506040610f0388828901610c74565b9350506060610f1488828901610c74565b9250506080610f2588828901610e6c565b9150509295509295909350565b6000610f3d82610ae6565b9150610f4883610ae6565b9250817fffffffffffffffffffffffffffffffffffffffffffffffffffffffffffffffff0483118215151615610f8157610f80610ced565b5b828202905092915050565b600081519050919050565b60005b83811015610fb5578082015181840152602081019050610f9a565b83811115610fc4576000848401525b50505050565b6000601f19601f8301169050919050565b6000610fe682610f8c565b610ff08185610d9c565b9350611000818560208601610f97565b61100981610fca565b840191505092915050565b6000604082019050818103600083015261102e8185610fdb565b905061103d6020830184610be1565b9392505050565b7f4e487b7100000000000000000000000000000000000000000000000000000000600052601260045260246000fd5b600061107e82610ae6565b915061108983610ae6565b92508261109957611098611044565b5b82820490509291505056fea2646970667358221220177fb680b23cfacb6a302258ba9385e8aadcfd161947b81430470cde95458cf064736f6c63430008080033",
  "linkReferences": {},
  "deployedLinkReferences": {}
}